:020000040800F2
:0800000000400020310100085E
:1000080080B485B000AF78600B46FB701346BB70B8
:100018007B68FB607B680C33BB60FB681B68FA7805
:100028005200032101FA02F2D2431A40FB681A6017
:10003800FB681B68B978FA78520001FA02F21A4391
:10004800FB681A60BB681B68FA785200032101FA42
:1000580002F2D2431A40BB681A6000BF1437BD468B
:100068005DF8047B704780B485B000AF78600B46BC
:10007800FB701346BB707B681833FB60BB78002BA2
:1000880007D0FB78012202FA03F31A46FB681A60CC
:1000980007E0FB781033012202FA03F31A46FB68E3
:1000A8001A6000BF1437BD465DF8047B704780B402
:1000B80085B000AF78600B46FB707B681033FB603F
:1000C800FB681A68FB7822FA03F3DBB203F001033A
:1000D800DBB218461437BD465DF8047B7047000054
:1000E80080B500AF012205210E48FFF789FF0122E4
:1000F80006210C48FFF784FF012207210948FFF772
:100108007FFF002203210748FFF77AFF0022012121
:100118000448FFF775FF002202210248FFF770FF2D
:1001280000BF80BD0000024080B500AF134B1B68C4
:10013800124A43F001031360FFF7D2FF032110486E
:10014800FFF7B5FF03461A4605210D48FFF78BFF59
:1001580001210B48FFF7ABFF03461A460621084862
:10016800FFF781FF02210648FFF7A1FF03461A4661
:1001780007210348FFF777FF00BFDFE73038024069
:040188000000024031
:04018C00F8B500BF03
:04019000F8B500BFFF
:0400000508000008E7
:00000001FF
